:10099C0060582000A2241797205502880E9F21DC56
:1009AC0069888000000820080647AE700800000027
:1009BC000000000001E0F2810000000200000004D1
:1009CC00A224A019285502880E9F31DC788880005B
:1009DC0000062008004CCD7008000000100000003C
:0C09EC0001E0F2810000000200000004A5
:100AAB00E490E68BF090E68AF022E0FCA3E0FDA355
:100ABB00E0FEA3E0F53E8E3D8D3C8C3B2290E74063
:100ACB00F0E490E68AF090E68B225391EF90E65D8E
:100ADB00225401FF1206F61BC3EB6480948022851F
:100AEB00080C85090D85100E85110F2285100C85BC
:090AFB00110D85080E85090F227A
:0E0EE300E4FEEEC39F5004000E80F7000022D4
:100E31007401A807088002C333D8FCFEF452B5E55B
:0B0E4100B05E60047F0180027F002291
:100E67007401A807088002C333D8FCFE42B5ED60C1
:0A0E770004EE42B022EEF452B02265
:100E81007D017F02120E677F05120EE31D7F0212A4
:070E91000E677F05020EE36E
:0A06F600AD077F03120E67020E81AC
:0D0EF1007F03120E31AC07120E81AF0422F8
:100C01008E3F8F40AC057B0BE540AE3FA8030880CB
:100C110005CEC313CE13D8F9120ADC50EBAF041280
:100C210006F6E4FBE4FF1206F60BBB03F77F0502B1
:020C31000EE3D0
:100CC800AA07AC05E4FD120E67AF047E00120C0102
:100CD8007B1FAF3EAE3DAD3CAC3BA8031205F8EF21
:0C0CE800120ADC50EDAF027D01020E6725
:1009F900AA07AB05E4F53CF53BF53AF539FD120ECE
:100A090067AF037E000D120C017B1FAF3CAE3BADFF
:100A19003AAC39780112060B8F3C8E3B8D3A8C39F2
:100A2900120EF1E53C4FF53CE53BF53BE53AF53A6D
:100A3900E539F539120AE250D2AF027D01120E678B
:090A4900AF3CAE3BAD3AAC3922E2
:100C330090E6047480F0000000E490E61AF00000EF
:100C43000090E6047406F000000090E61A740CF0BD
:100C5300000000E490E604F00000007D017F07023D
:020C63000E671A
:100ED30090E61A7404F0000000E4FD7F07020E6739
:100D4B008E398F3A8D3B8A3C8B3DE53990205CF098
:100D5B00EFA3F07A207B5C7D027F51120E15AB3D29
:090D6B00AA3CAD3B7F51020DF9D9
:100B04008E398F3A8D3B8A3C8B3DE4F53EE53EC3FE
:100B1400953B5036E53990205CF0E53AA3F0E53D8D
:100B2400253EF582E4353CF583E090205EF07A20A2
:100B34007B5C7D037F51120E157F51120B95053E90
:0B0B4400053AE53A70C7053980C3226E
:1008C400E4F535E4F536E53575F02CA42400F5821D
:1008D400E43420F58375F004E53612065E120AB599
:1008E400AD36AF35120CC80536E536C3940B40D689
:0A08F4000535E535C3940240CA2221
:1008590075353F7536047F007E3F1208BA7FBA7E30
:100869000C7DC07CAB902058E0F8A3E0F9A3E0FA36
:10087900A3E0FBC31205E77037E4F537E4F538AFB9
:1008890036AE351208BA902058120AB5AD38AF37CE
:10089900120CC874042536F536E43535F5350538B6
:1008A900E538C3940B40D80537E537C3940240CCEB
:0B08B900227A207B587D04120D4B2298
:100A520075353F75360490205812062AABC00CBA81
:100A62007F007E3F120AA1E4F537E4F538AD38AFD6
:100A7200371209F990205812061EAF36AE35120A07
:100A8200A174042536F536E43535F5350538E538F3
:100A9200C3940B40D80537E537C3940240CC227A81
:090AA200207B587D04120B042294
:1007B80090E6007412F0000000E490E618F00000E3
:1007C8000090E619F000000090E61AF00000009092
:1007D800E61BF000000090E6017453F00000009062
:1007E800E60B7403F000000090E6127420F000009D
:1007F8000090E613F000000090E61474E0F00000AA
:100808000090E6157460F0000000E490E609F0003E
:10081800000090E6247402F0000000E490E625F061
:1008280000000090E6047486F0000000E4F0000088
:10083800007D01FF120E670F120E671D0F120E6763
:10084800120F351208C41208597FFF120EE3020C6A
:01085800336C
:100E4C007F04120E31EF600C7F05120E31EF60043F
:0B0E5C007D0180027D007F06020E6712
:10049F0090E6BFE0FE90E6BEE07C002400F532EC73
:1004AF003EF53190E6BBE0FE90E6BAE02400F5346D
:1004BF00EC3EF53390E6B9E06440702E90E740745F
:1004CF0010F0A3745DF0A374C0F07F04120E31A37B
:1004DF00EFF07F05120E31A3EFF07F07120E31A35D
:1004EF00EF120ACB7406F002059690E6B9E0B4411C
:1004FF001C90E6BBE0FF90E6BAE0FD1209F990E729
:10050F004012061E120ACC7404F002059690E6B94A
:10051F00E064427031C3E5329404E5319400500138
:10052F0022120AAB90E6A0E020E1F990E740E0FC50
:10053F00A3E0FDA3E0FE120ABD90E6BAE0FDA3E042
:10054F00FF120CC8804190E6B9E0B44408120AAB20
:10055F00120C33803290E6B9E0B44508120AAB12A0
:10056F000ED3802390E6B9E0B4460B120AAB120EFD
:10057F00D31207B8801190E6B9E0B44708120AAB5E
:09058F00120A528002D322C32299
:050F3D00D2000207B81C
:030F4A00020E4C48
:0208FE00D32203
:020F4D00D322AD
:020F4F00D322AB
:020F5100D322A9
:020F5300D322A7
:020F5500D322A5
:040F420012049F22D4
:080F250090E6BAE0F51DD322AD
:080F2D0090E6BAE0F51CD322A6
:090F1300E51D120AC804F0D32206
:090F1C00E51C120AC804F0D322FE
:100DDD00C0E0C083C08290E6B5E04401F0D20112BC
:0C0DED000AD57401F0D082D083D0E0322F
:100EAD00C0E0C083C082120AD57404F0D082D08312
:030EBD00D0E03250
:100EC000C0E0C083C082120AD57402F0D082D08301
:030ED000D0E0323D
:100D9900C0E0C083C08290E680E030E705120AEA2D
:100DA9008003120AF7120AD57410F0D082D083D0CA
:020DB900E03226
:100E9800C0E0C083C082D203120AD57408F0D082A1
:050EA800D083D0E03210
:100DBB00C0E0C083C08290E680E030E705120AEA0B
:100DCB008003120AF7120AD57420F0D082D083D098
:020DDB00E03204
:010F57003267
:010F58003266
:010F59003265
:010F5A003264
:010F5B003263
:010F5C003262
:010F5D003261
:010F5E003260
:010F5F00325F
:010F6000325E
:010F6100325D
:010F6200325C
:010F6300325B
:010F6400325A
:010F65003259
:010F66003258
:010F67003257
:010F68003256
:010F69003255
:010F6A003254
:010F6B003253
:010F6C003252
:010F6D003251
:010F6E003250
:010F6F00324F
:010F7000324E
:010F7100324D
:010F7200324C
:010F7300324B
:010F7400324A
:010F75003249
:010F76003248
:010F77003247
:010F78003246
:010F79003245
:010F7A003244
:0A0F090000010202030304040505C1
:100C9700EC4EFEED4F2409F582740F3EF583E49385
:100CA700FF3395E0FEEF24A1FFEE34E68F82F58354
:100CB7002290E6BCE0547EFF7E00E0D394807C0067
:010CC700220A
:10023C00E4F52CF52BF52AF529C203C200C202C243
:10024C0001120F3D7E097F008E0A8F0B7512097506
:10025C00131275080975091C75100975114A751466
:10026C0009751578EE54C0700302033D752D0075A9
:10027C002E808E2F8F30C3749A9FFF74099ECF24CB
:10028C0002CF3400FEE48F288E27F526F525F524C1
:10029C00F523F522F521AF28AE27AD26AC25AB24EE
:1002AC00AA23A922A821C31205E75033E53025243F
:1002BC00F582E52F3523F583E0FFE52E2524F58225
:1002CC00E52D3523F583EFF0E5242401F524E43501
:1002DC0023F523E43522F522E43521F52180B78579
:1002EC002D0A852E0B74002480FF740934FFFEC385
:1002FC00E5139FF513E5129EF512C3E50D9FF50D61
:10030C00E50C9EF50CC3E50F9FF50FE50E9EF50E63
:10031C00C3E5099FF509E5089EF508C3E5119FF5AE
:10032C0011E5109EF510C3E5159FF515E5149EF526
:10033C0014D2E843D82090E668E04409F090E65CDB
:10034C00E0443DF0D2AF90E680E054F7F0538EF8E5
:10035C00C203120F4A300105120080C2013003F2B1
:10036C001208FE50EDC203120D7420001690E682A6
:10037C00E030E704E020E1EF90E682E030E604E0D4
:0B038C0020E0E4120CF4120F4D80C7BB
:0B0EFE0090E509E030E402C322D3229B
:1000800090E6B9E0700302013F147003020193246B
:10009000FE70030201ED24FB7003020139147003AA
:1000A00002013314700302012714700302012D248E
:1000B000056003020228120F4F400302023490E64B
:1000C000BBE024FE602714603824FD601114602713
:1000D00024067050E50A90E6B3F0E50B803C120E62
:1000E000FE503EE51290E6B3F0E513802DE50C904E
:1000F000E6B3F0E50D8023E50E90E6B3F0E50F8062
:100100001990E6BAE0FF120D20AA06A9077B01EAC2
:10011000494B600DEE90E6B3F0EF90E6B4F00202CA
:1001200034020223020223120F1C020234120F2D8A
:10013000020234120F25020234120F13020234128B
:100140000F51400302023490E6B8E0247F6015149A
:1001500060192402703AA200E43325E0FFA202E411
:10016000334F8018E490E740F08016120CB840043A
:100170007D0180027D00120C97E0540190E740F071
:10018000E4A3F090E68AF090E68B7402F002023469
:10019000020223120F53400302023490E6B8E02417
:1001A000FE60162402600302023490E6BAE0B40155
:1001B00005C20002023402022390E6BAE0702C125B
:1001C0000CB840047D0180027D00120C97E054FEC3
:1001D000F090E6BCE05480131313541FFFE0540F5B
:1001E0002F90E683F0E04420F080498036120F55CE
:1001F000504290E6B8E024FE60192402702590E693
:10020000BAE0B40104D200802B90E6BAE064026048
:10021000238010120CB840047D0180027D00120C76
:1002200097800D90E6A08008120F42500790E6A03C
:0C023000E04401F090E6A0E04480F022E1
:03003300020F4673
:040F460053D8EF325B
:03004300020700B1
:03005300020700A1
:10070000020DDD00020EC000020EAD00020E9800C8
:10071000020D9900020DBB00020F5700020F580096
:10072000020F5900020F5A00020F5B00020F5C001B
:10073000020F5D00020F5E00020F5F00020F6000FB
:10074000020F6100020F5800020F6200020F6300E7
:10075000020F6400020F6500020F6600020F6700BF
:10076000020F6800020F5800020F5800020F5800D5
:10077000020F6900020F6A00020F6B00020F6C008B
:10078000020F6D00020F6E00020F6F00020F70006B
:10079000020F7100020F7200020F7300020F74004B
:1007A000020F7500020F7600020F7700020F78002B
:0807B000020F7900020F7A002C
:100CF40090E682E030E004E020E60B90E682E0300B
:100D0400E119E030E71590E680E04401F07F147EBD
:0C0D140000120B4F90E680E054FEF0222D
:080F3500E4F51BD2E9D2AF2262
:100B9500AD0790E678E020E6F9C2E990E678E04412
:100BA50080F0ED25E090E679F090E678E030E0F928
:100BB50090E678E04440F090E678E020E6F990E6AB
:080BC50078E030E1D6D2E9220C
:100C6500AC0790E678E020E6F9E51B702390E6787E
:100C7500E04480F0EC25E090E679F08D16AF03A90D
:100C8500077517018A188919E4F51A751B01D3220E
:020C9500C32278
:100BCD00AC0790E678E020E6F9E51B702590E67815
:100BDD00E04480F0EC25E0440190E679F08D16AF0D
:100BED0003A9077517018A188919E4F51A751B03EE
:040BFD00D322C3221A
:03004B0002039716
:10039700C0E0C083C082C085C084C086758600C0A7
:1003A700D075D000C000C001C002C003C006C0079E
:1003B70090E678E030E206751B0602048190E67845
:1003C700E020E10CE51B64026006751B070204814F
:1003D700E51B24FE605F14603624FE70030204727E
:1003E70024FC700302047E24086003020481AB1717
:1003F700AA18A919AF1A051A8F82758300120598D2
:1004070090E679F0E51A65167070751B05806B909C
:10041700E679E0AB17AA18A919AE1A8E8275830080
:100427001205C5751B02E5166401704E90E678E06B
:100437004420F08045E51624FEB51A0790E678E0DB
:100447004420F0E51614B51A0A90E678E04440F027
:10045700751B0090E679E0AB17AA18A919AE1A8E9A
:10046700827583001205C5051A800F90E678E0446F
:1004770040F0751B008003751B005391DFD007D038
:1004870006D003D002D001D000D0D0D086D084D0FF
:0804970085D082D083D0E03251
:020D2000A90721
:100D2200AE14AF158F828E83A3E064037017AD01FA
:100D320019ED7001228F828E83E07C002FFDEC3E44
:080D4200FEAF0580DFE4FEFFB7
:010D4A002286
:100DF900120BCDE51B24FA600E146006240770F36C
:0C0E0900D322E4F51BD322E4F51BD32216
:100E1500120C65E51B24FA600E146006240770F3B6
:0C0E2500D322E4F51BD322E4F51BD322FA
:100D740090E682E044C0F090E681F04387010000F1
:040D84000000002249
:100B4F008E318F3290E600E054187012E532240196
:100B5F00FFE43531C313F531EF13F532801590E60D
:100B6F0000E05418FFBF100BE53225E0F532E531F8
:100B7F0033F531E5321532AE31700215314E600565
:060B8F00120D8880EE2229
:100D88007400F58690FDA57C05A3E582458370F97E
:010D98002238
:100900001201000200000040B404041000000102C3
:1009100000010A06000200000040010009022E004A
:1009200001010080320904000004FF0000000705F7
:100930000202000200070504020002000705860209
:100940000002000705880200020009022E000101D2
:100950000080320904000004FF00000007050202C5
:100960004000000705040240000007058602400021
:100970000007058802400000040309041003430037
:100980007900700072006500730073000E0345006B
:0C0990005A002D005500530042000000EA
:0300000002066A8B
:0C066A00787FE4F6D8FD7581400206B1EF
:10059800BB010CE58229F582E5833AF583E0225018
:1005A80006E92582F8E622BBFE06E92582F8E22262
:0D05B800E58229F582E5833AF583E493227C
:1005C500F8BB010DE58229F582E5833AF583E8F06C
:1005D500225006E92582C8F622BBFE05E92582C818
:0205E500F22200
:1005E700EB9FF5F0EA9E42F0E99D42F0E89C45F06A
:0105F70022E1
:1005F800E8600FECC313FCED13FDEE13FEEF13FFE1
:03060800D8F12204
:10060B00E8600FEFC333FFEE33FEED33FDEC33FC4D
:03061B00D8F122F1
:0C061E00ECF0A3EDF0A3EEF0A3EFF0224F
:10062A00A8828583F0D083D082120644120644122F
:10063A000644120644C082C08322E493A3C583C53C
:10064A00F0C583C8C582C8F0A3C583C5F0C583C8F1
:04065A00C582C8226B
:0C065E00A42582F582E5F03583F58322A7
:1006760002023CE493A3F8E493A34003F68001F25C
:1006860008DFF48029E493A3F85407240CC8C33385
:10069600C4540F4420C8834004F456800146F6DF54
:1006A600E4800B010204081020408090099CE47E3F
:1006B600019360BCA3FF543F30E509541FFEE49349
:1006C600A360010ECF54C025E060A840B8E493A310
:1006D600FAE493A3F8E493A3C8C582C8CAC583CA3B
:1006E600F0A3C8C582C8CAC583CADFE9DEE780BEF3
:0109F80000FE
:00000001FF
